{
  "contractName": "CToken",
  "abi": [
    {
      "inputs": [],
      "stateMutability": "nonpayable",
      "type": "constructor"
    },
    {
      "inputs": [],
      "name": "abv",
      "outputs": [
        {
          "internalType": "string",
          "name": "",
          "type": "string"
        }
      ],
      "stateMutability": "view",
      "type": "function",
      "constant": true
    },
    {
      "inputs": [],
      "name": "name",
      "outputs": [
        {
          "internalType": "string",
          "name": "",
          "type": "string"
        }
      ],
      "stateMutability": "view",
      "type": "function",
      "constant": true
    },
    {
      "inputs": [],
      "name": "totalSupply",
      "outputs": [
        {
          "internalType": "uint256",
          "name": "",
          "type": "uint256"
        }
      ],
      "stateMutability": "view",
      "type": "function",
      "constant": true
    }
  ],
  "bytecode": "0x60806040526040518060400160405280600481526020017f42696743000000000000000000000000000000000000000000000000000000008152506001908051906020019061004f9291906100b7565b506040518060400160405280600281526020017f42430000000000000000000000000000000000000000000000000000000000008152506002908051906020019061009b9291906100b7565b503480156100a857600080fd5b506127106000819055506101ba565b8280546100c390610189565b90600052602060002090601f0160209004810192826100e5576000855561012c565b82601f106100fe57805160ff191683800117855561012c565b8280016001018555821561012c579182015b8281111561012b578251825591602001919060010190610110565b5b509050610139919061013d565b5090565b5b8082111561015657600081600090555060010161013e565b5090565b7f4e487b7100000000000000000000000000000000000000000000000000000000600052602260045260246000fd5b600060028204905060018216806101a157607f821691505b6020821081036101b4576101b361015a565b5b50919050565b610347806101c96000396000f3fe608060405234801561001057600080fd5b50600436106100415760003560e01c80630507857b1461004657806306fdde031461006457806318160ddd14610082575b600080fd5b61004e6100a0565b60405161005b919061025b565b60405180910390f35b61006c61012e565b604051610079919061025b565b60405180910390f35b61008a6101bc565b6040516100979190610296565b60405180910390f35b600280546100ad906102e0565b80601f01602080910402602001604051908101604052809291908181526020018280546100d9906102e0565b80156101265780601f106100fb57610100808354040283529160200191610126565b820191906000526020600020905b81548152906001019060200180831161010957829003601f168201915b505050505081565b6001805461013b906102e0565b80601f0160208091040260200160405190810160405280929190818152602001828054610167906102e0565b80156101b45780601f10610189576101008083540402835291602001916101b4565b820191906000526020600020905b81548152906001019060200180831161019757829003601f168201915b505050505081565b60005481565b600081519050919050565b600082825260208201905092915050565b60005b838110156101fc5780820151818401526020810190506101e1565b8381111561020b576000848401525b50505050565b6000601f19601f8301169050919050565b600061022d826101c2565b61023781856101cd565b93506102478185602086016101de565b61025081610211565b840191505092915050565b600060208201905081810360008301526102758184610222565b905092915050565b6000819050919050565b6102908161027d565b82525050565b60006020820190506102ab6000830184610287565b92915050565b7f4e487b7100000000000000000000000000000000000000000000000000000000600052602260045260246000fd5b600060028204905060018216806102f857607f821691505b60208210810361030b5761030a6102b1565b5b5091905056fea26469706673582212201445f9828def20c97def40feab8700c94711bb489de04fc61352f506093447db64736f6c634300080d0033",
  "immutableReferences": {},
  "source": "pragma solidity ^0.8.0;\n\ncontract CToken{\n    uint256 public totalSupply;\n    string public name=\"BigC\";\n    string public abv=\"BC\";\n    //constructor\n    //set the tokens \n    //read total number of tokens\n  constructor() public{\n      totalSupply = 10000;\n\n    }\n}",
  "sourcePath": "/home/author-sanjay/Documents/github/bigCtoken/contracts/CToken.sol",
  "compiler": {
    "name": "solc",
    "version": "0.8.13+commit.abaa5c0e.Emscripten.clang"
  },
  "schemaVersion": "3.4.6",
  "updatedAt": "2022-03-29T08:31:32.082Z",
  "networkType": "ethereum",
  "devdoc": {
    "kind": "dev",
    "methods": {},
    "version": 1
  },
  "userdoc": {
    "kind": "user",
    "methods": {},
    "version": 1
  }
}